:020000040800F2
:10000000E84F002085020008993800081D320008DA
:1000100095380008911900088B4D00080000000079
:10002000000000000000000000000000ED010008DA
:10003000451F000800000000310200084944000884
:100040009F0200089F0200089F0200089F0200080C
:100050009F0200089F0200089F0200089F020008FC
:100060009F0200089F0200089F0200089F020008EC
:100070009F0200089F0200089F0200089F020008DC
:100080009F0200089F0200089F0200089F020008CC
:100090009F0200089F0200089F0200089F020008BC
:1000A0009F0200089F0200089F0200089F020008AC
:1000B0009F0200089F0200089F0200089F0200089C
:1000C0009F0200089F0200089F0200089F0200088C
:1000D0009F020008554800082D490008194A0008E9
:1000E0009F0200089F0200089F02000800F002F82B
:1000F00000F06DF80AA090E8000C82448344AAF155
:100100000107DA4501D100F062F8AFF2090EBAE852
:100110000F0013F0010F18BFFB1A43F0010318473B
:1001200028840000488400000A444FF0000C10F8B6
:10013000013B13F0070408BF10F8014B1D1108BF65
:1001400010F8015B641E05D010F8016B641E01F805
:10015000016BF9D113F0080F1EBF10F8014BAD1C55
:100160000C1B09D16D1E58BF01F801CBFAD505E073
:1001700014F8016B01F8016B6D1EF9D59142D6D3CD
:10018000704700000023002400250026103A28BFF5
:1001900078C1FBD8520728BF30C148BF0B607047F9
:1001A000662907F00C85642900F0CA80732900F0E5
:1001B000BC84002070471FB500F014FD040000202F
:1001C000002106F00BFFE0601FBD10B510BD00F070
:1001D00009FE1146FFF7EFFF05F078F900F027FE62
:1001E00003B4FFF7F2FF03BC00F06AFE224B19686C
:1001F0000868B0E8F00F80F30988BFF36F8F4FF005
:10020000000080F311884EF00D0E704700000000D2
:1002100006480068006880F3088862B661B6BFF3DC
:100220004F8FBFF36F8F00DF00BF00BF08ED00E00E
:10023000EFF30980BFF36F8F0F4B1A6820E9F00FBF
:10024000106008B54FF0BF0080F31188BFF34F8FE7
:10025000BFF36F8F06F094F94FF0000080F3118820
:10026000BDE8084019680868B0E8F00F80F3098815
:10027000BFF36F8F704700BF2C010020EFF30580A4
:10028000704700000948804709480047FEE7FEE73D
:10029000FEE7FEE7FEE7FEE7FEE7FEE7FEE7FEE736
:1002A00004480549054A064B7047000059440008B8
:1002B000ED000008E8490020E84F0020E84B00204E
:1002C000E84B00200FB41CB5074B06AA7B446946D7
:1002D0000090059800F0FFFB0020694600F00EFC3E
:1002E0001CBC5DF814FB00002D08000070B50C4626
:1002F0000546012A05D02878800600D5EA69002342
:1003000002E0012305E05B1C934202D2E05C00287E
:10031000F9D1A869E618C01AA861286A18442862A9
:100320002846AFF3008004E0D5E9012114F8010B61
:100330009047B442F8D32846AFF3008070BD000068
:100340002DE9F0410646002410687529314616A5AE
:1003500010D0AFF30080002802DA404213A507E076
:1003600031688A0701D512A502E0490704D511A515
:10037000012401E0AFF3008000210A2206F12407E6
:1003800009E0B0FBF2FCB0FBF2F302FB1C003030E2
:1003900078541846491C0028F3D123462A46304693
:1003A000BDE8F04100F02AB9000000002D00000077
:1003B0002B000000200000002DE9F0474FF0000A5C
:1003C00089460446C0F820A02046E16888470028F6
:1003D00076D0252806D0D4E901219047206A401C18
:1003E0002062F1E7E168204600258847C4F81CA098
:1003F00006460027C4F818A02A2E09D0304605F07A
:100400005DF838B304EB8708303EC8F8186019E08F
:1004100059F8041B204604EB87029161E168884784
:10042000012F064618D1E069002820DA25F02005C2
:100430001DE0D8F8180000EB800006EB40003038D3
:10044000C8F818002046E1688847064605F036F8E7
:100450000028EED1012F0AD02E2E08D12046E168C7
:1004600088477F1C0646022F45F02005C4DBA069A3
:10047000002803DA404245F00105A061E80701D0F9
:1004800025F01005B6B1A6F14100192802D8203692
:1004900045F400654A463146204625604D46FFF743
:1004A0007FFE58B1012806D0ED1D25F0070000F1B0
:1004B000080989E704E005F1040985E730468AE781
:1004C000206ABDE8F08730B505460B462A4613F88A
:1004D000014B12F8010B08B1A042F8D01CB1002862
:1004E00002D06D1CF1E7284630BD10B5431C02E078
:1004F00010F8011B71B18107FAD14FF0013202C827
:100500008C1A8C4314EAC211F9D0C01A0A0603D01F
:10051000C01E10BDC01A10BD0A0401D0801E10BD3F
:100520000902FCD0401E10BD032A40F2308010F0BA
:10053000030C00F0158011F8013BBCF1020F62447E
:1005400098BF11F801CB00F8013B38BF11F8013B0F
:10055000A2F1040298BF00F801CB38BF00F8013BBC
:1005600011F0030300F0E582083AC0F0088051F86A
:10057000043B083A51F804CBA0E80810F5E7121D37
:100580005CBF51F8043B40F8043BAFF30080D20756
:1005900024BF11F8013B11F801CB48BF11F8012B22
:1005A00024BF00F8013B00F801CB48BF00F8012B45
:1005B00070474FF000020429C0F0128010F0030CC5
:1005C00000F0EB82CCF1040CBCF1020F18BF00F874
:1005D000012BA8BF20F8022BA1EB0C0100F0DDBA23
:1005E0005FEAC17C24BF00F8012B00F8012B48BF53
:1005F00000F8012B70477047704770472DE9F047AE
:100600000D4699469246044600F124080168880682
:1006100004D5E06921F01001216000E00120A8422A
:1006200001DD471B00E00027A1697A1902EB0900F0
:10063000081AA0612078C00602D42046AFF30080DB
:10064000002608E0D4E901211AF806009047206A44
:10065000401C761C20624E45F4DB2078C0060AD58B
:100660002046AFF3008006E0D4E901213020904716
:10067000206A401C2062381EA7F10107F4DC07E065
:10068000D4E9012118F805009047206A401C206237
:10069000281EA5F10105F3DC2046AFF30080207889
:1006A000000602D50220BDE8F0870120FBE7704775
:1006B0002DE9FF4F0C461E464FF0FF378BB0D2E9B5
:1006C0000001DDF860800A908A46C1F30A5505B939
:1006D0003D46002108464FF00000BAF1000F00F43B
:1006E000400005DA00EB80004FF4400101EA5000C1
:1006F0004FEA9059B9F1010F00DDB9460A9850EA66
:100700004A000ED044F61050A5F2FF3545432F1491
:10071000B8F1000F1ED07542291E1EDDC9F100027E
:100720001CE0B8F1010F4FF0000001D0302103E0D0
:10073000F24305E02154401CB042FBDB304600226E
:10074000002121540B99C1F80880C1E900200FB0A5
:10075000BDE8F08FBD1B6D1CDEE74A4600DA69423A
:1007600006A800F0C9FA06AB93E8070003AB83E8DC
:10077000070050460A9900F0AAFB8DE80700A0F593
:1007800000501F3800900398002D0ADD42F21F012F
:100790004A460844002303A90390684600F013FE6C
:1007A00009E0A0F500504A461F38002303A9039032
:1007B000684600F01DFE8DE807000004000C03D021
:1007C0004FF0FF30410800E01046B8F1000F03D0B1
:1007D0000022009215461EE0751E05D400F006FAB0
:1007E000303262556D1EF9D5B3460122084302D05E
:1007F00000227F1C04E02078302801D100227F1ED7
:10080000002A099784D01DE0112D07DA00F0EEF9D7
:10081000303262556D1C50EA0102F5D1084302D016
:100820000098C8B10EE00021681E05E0235C625C00
:1008300063542254401E491C8142F7DBAB46A81B7F
:10084000401E0990002004F80B000B98099AC0F88C
:100850000880C0E9002B7AE711264FF0000857E71F
:100860002DE9F04F88460446D21D22F0070191B0D1
:10087000D1E90001CDE90A0104F00CFE02460B9813
:10088000C00F01D02D2007E02068810701D52B2063
:1008900002E0202101EAC000032A099001D0072AC2
:1008A00005DB03464146204600F0E6F90BE12078DF
:1008B000800601D5E06900E00620B8F1650F8146A9
:1008C00006D0B8F1660F18D0B8F1670F70D131E0DB
:1008D0000020B9F1110F009001DB112301E009F1B3
:1008E00001030AAA01A90CA8FFF7E2FEDDE90C70DA
:1008F000002609F10105834647E001204B460090A0
:100900004FF000470AAA01A90CA8FFF7D1FEDDE9C4
:100910000DB00C995D46002610B909F101000D18C3
:10092000B9EB050003D4C0F1FF3609F10105A5EBD1
:1009300009002BE0B9F1010F01DA4FF001090020A5
:10094000B9F1110F0090484601DD112300E0034684
:100950000AAA01A90CA8FFF7ABFEDDE90C704D4611
:1009600000268346207800070AD4AB4500DA5D46AE
:1009700001A8012D04DD411911F8011C302907D00F
:100980004F4502DA17F1040F04DA012082460FE026
:100990006D1EEEE7002F02DCED1B3E4403E0781CE9
:1009A000A84200DD7D1CB81B00F1010A4FF0004792
:1009B0002078000703D4AA4501DB4FF0FF3A00215D
:1009C000B7F1004F0DF143088DF8431024D00220F9
:1009D0002B23002F01DA7F422D230A21021EA0F1D2
:1009E000010000DC5FB197FBF1FC97FBF1F201FB2A
:1009F0001C7C17460CF1300C08F801CDEEE7A8F18D
:100A0000010003702188090501D5452100E0652119
:100A1000A0F1010800F8011C09980FA9A1EB080733
:100A2000FF1D00B10120411901EBEA70A1693844B2
:100A3000081A401EA0612078C00602D42046AFF3F9
:100A40000080099828B1D4E901219047206A401C10
:100A500020622078C00622D52046AFF300801EE039
:100A6000002E04DBB34502DD01A8805D00E03020EC
:100A7000D4E901219047206A401C2062761CAAF12B
:100A800001005FEA000A0AD100F0ACF8C068016812
:100A9000405CD4E901219047206A401C2062281E56
:100AA000A5F10105DCDC07E0D4E9012118F8010B10
:100AB0009047206A401C2062381EA7F10107F3DC32
:100AC0002046AFF30080032011B041E601694A1CC3
:100AD00002610878704700B58FB0CDE9013100217F
:100AE000059105497944CDE9031011466846FFF7A1
:100AF00063FC0FB000BD0000E5FFFFFF0A6802F8CD
:100B0000010B0A60704710B5436913B1AFF3008061
:100B100001E0FFF7EBFB012010BD127800F124018A
:100B20000A7000224A700122EDE711684FF0FF328F
:100B3000E9E710B5203AC0F00B80B1E81850203A30
:100B4000A0E81850B1E81850A0E81850BFF4F5AF6D
:100B50005FEA027C24BFB1E81850A0E8185044BFF7
:100B600018C918C0BDE810405FEA827C24BF51F864
:100B7000043B40F8043B08BF7047D20728BF31F858
:100B8000023B48BF11F8012B28BF20F8023B48BFA9
:100B900000F8012B70474FF0000200B51346944651
:100BA0009646203922BFA0E80C50A0E80C50B1F1C5
:100BB0002001BFF4F7AF090728BFA0E80C5048BFD9
:100BC0000CC05DF804EB890028BF40F8042B08BF77
:100BD000704748BF20F8022B11F0804F18BF00F873
:100BE000012B704700487047A449002030B5B0F190
:100BF0000A024FEA900E71F100034EEA817EB0EBDB
:100C00000E0061EB91014FEA101E4EEA017E10EBDF
:100C10000E0041EB11114FEA102E4EEA016E10EB5F
:100C20000E0041EB11214FEA104E4EEA014E10EB3F
:100C30000E0041EB1141401841F100014FEAD00094
:100C400040EA41704FEAD10110EB80054FEA810480
:100C500044EA907444EB01046D1944EB0404521B04
:100C6000A3414FF0000348BF0A3200D530BD401CFD
:100C700041F1000130BD00002DE9F0411F4604465E
:100C800003260168072A01F4006004DB08B116A5F9
:100C900005E016A503E008B115A500E015A521F0B3
:100CA00010002060A069C01EA0610FB1401EA061AD
:100CB0002046AFF300804FB1D4E901213846904778
:100CC000206A401C2062C01C206206E0206AFAE70D
:100CD000D4E9012115F8010B9047761EF8D2204681
:100CE000AFF30080BDE8F0814E414E006E616E00B2
:100CF000494E4600696E66002DE9F047814616466A
:100D00008AB0354878440DC88DE80D0032487844E3
:100D1000801C03AC0DC884E80D0041F69B300844EC
:100D2000372190FBF1F290FBF1F5A5F1800501FB75
:100D300012041B3C02D56442012000E00020DFF8D1
:100D400098A080460027FA44AAF1BE0A0EE0E00708
:100D50000AD03246684607EB470101230AEB8101BE
:100D600000F046FB8DE8070064107F1C002CEED1DC
:100D7000194F7F44AE3F19E0E80715D007EB041088
:100D80000DF1180A90E80E008AE80E00C068F042E3
:100D900001D1981908903246012306A903A800F052
:100DA00027FB03AB83E807006D10641C002DE3D123
:100DB0004FF0010332466946B8F1000F03A802D094
:100DC00000F001FB01E000F013FBC9E90001C9F8E4
:100DD00008200AB0BDE8F087287800000048704776
:100DE000844900207546FFF7F9FFAE4605006946C5
:100DF000534620F00700854618B020B5FFF750FA9B
:100E0000BDE820404FF000064FF000074FF000080B
:100E10004FF0000B21F00701AC46ACE8C009ACE88C
:100E2000C009ACE8C009ACE8C0098D46704710B5F0
:100E30000446AFF300802046BDE81040FFF7D0B96C
:100E40004FF0013C50F8042B51F8043B9A4221D159
:100E5000A2EB0C03934313EACC1317D150F8042BE5
:100E600051F8043B9A4215D1A2EB0C03934313EAC9
:100E7000CC130BD150F8042B51F8043B9A4209D102
:100E8000A2EB0C03934313EACC13DBD04FF000002A
:100E9000704700BFD01A01BAB1FA81F101F0180110
:100EA00022FA01F0CB40C1F12001DBB2C0B2C01A7E
:100EB0002CFA01F3D11A914311EAC311E6D170471C
:100EC00001491820ABBEFEE72600020070475FEA2A
:100ED000400C08BF91F0000F4FEA8C234FEAC1226B
:100EE00043EA51514FEA1C5018BF00F5F0404FEA59
:100EF000300018BF41F000415FEA6C5C00F02980CF
:100F0000BCF1FF3F08BF40F080407047130C06BFA4
:100F100012044FF0100C4FF0000C130E04BF12021D
:100F20000CF1080C130F04BF12010CF1040C930F09
:100F300004BF92000CF1020CD30F04BF52000CF15D
:100F4000010C11464FF00002A0F11F00A0EB0C00B5
:100F5000704711F0004F08BF704731F000413FF477
:100F6000D5AF0B0C06BF09044FF0100C4FF0000C6E
:100F70000B0E04BF09020CF1080C0B0F04BF090192
:100F80000CF1040C8B0F04BF89000CF1020CCB0F89
:100F900004BF49000CF1010CCCF12003A0EB0C00C4
:100FA00022FA03F302FA0CF241EA030100F1010014
:100FB000704720F07F4C80EA030023F07F47ACEBC2
:100FC000070303F57C5300F0004003F1FF032DE914
:100FD00080494FEA154B09B44FEA144325EA0B4EFA
:100FE00024EA03480FF2042606EB132749083E784B
:100FF0005FEA320203FB0667C7F5000707FB06F648
:101000004FEA54374FEAD64606F1020607FB066C54
:10101000CCF1005C4FEA1C472CEA074C07FB06F4B6
:101020000CFB06F504EB15464FEA961634BF00207C
:101030004FF000404FEAD13706FB07FC4FEA1C4C4B
:101040000CFB0BF7D21B03FB0CF761EB07010CFB4E
:101050000EF7B0EB074072EB17420CFB08F734BFFA
:10106000A2EB0742B2EB074261EB17414FEA0C4497
:101070004FEA910706FB07FC4FEA1C4C0CFB0BF7F1
:10108000B0EBC74072EB573203FB0CF734BFA2EB57
:10109000C742B2EBC74261EB57310CFB0EF7B0EB26
:1010A000C70072EB57720CFB08F734BFA2EBC70204
:1010B000B2EBC70261EB5771039F4FEA816141EACE
:1010C000921104EBCC044FEAD1374FEA826206FB5F
:1010D00007FC42EA90124FEA80604FEA1C4C0CFB7E
:1010E0000BF7D21B03FB0CF761EB07010CFB0EF7B0
:1010F000B0EB074072EB17420CFB08F734BFA2EBD2
:101100000742B2EB074261EB17414FEA8C554FEAB9
:10111000910704EB9C2406FB07FC4FEA1C4C0CFBDC
:101120000BF7B0EBC74072EB573203FB0CF734BF41
:10113000A2EBC742B2EBC74261EB57310CFB0EF793
:10114000B0EBC70072EB57720CFB08F734BFA2EB91
:10115000C702B2EBC70261EB577115EB4C254FEAA2
:10116000816141EA92114FEA82624FEAD13742EA45
:10117000901206FB07FC44F100044FEA80604FEA3E
:101180001C4C0CFB0BF7D21B03FB0CF761EB0701AC
:101190000CFB0EF7B0EB074072EB17420CFB08F7A5
:1011A00034BFA2EB0742B2EB074261EB174115EBEC
:1011B0001C154FEA813141EA92414FEA823242EAFC
:1011C00090424FEA80304FEA0C7644F1000448EA3E
:1011D00003434EEA0B484FF0000EB2EB080C71EBE4
:1011E000030724BF624639464EEB0E0E4FF0000B4C
:1011F0000018524149414BEB0B0BB2EB080C71EB61
:1012000003077BF1000B24BF624639464EEB0E0EFE
:101210004FF0000B0018524149414BEB0B0BB2EB66
:10122000080C71EB03077BF1000B24BF62463946C3
:101230004EEB0E0E51EA020718BF46F0010616EB00
:101240000E7655F1000254F1000103D5BDE8890185
:10125000BDE80088BDE88901BDE80048B6195241E3
:1012600041EB0101A3F10103704780807F7E7D7C0B
:101270007B7A7978777676757473727171706F6E28
:101280006E6D6C6C6B6A6A696868676666656464D3
:10129000636362616160605F5F5E5E5D5D5C5C5B5D
:1012A0005B5A5A59595858575756565555555454CC
:1012B000535352525251515050504F4F4F4E4E4D2A
:1012C0004D4D4C4C4C4B4B4B4A4A4A494949484876
:1012D00048474747474646464545454444444443B6
:1012E00043434342424242414141002B9C4630D459
:1012F00077002BD01CB54FEA370703B44FF010002E
:101300004FF01001BAF1000F06D0BCF1000FDCBFA6
:1013100040F0080040F008014FF000000FBCBDE8AD
:1013200010400BF1010BBBF1010F08BF5FEA17077B
:1013300022BF12F1010211F101014FF0004143F10E
:10134000000300F0004043EA00007047F9D357085B
:10135000D0E746EA064613F1400F4FEA16461FDD76
:1013600013F1200FDFBF16430A46002120335B42F2
:10137000BED0C3F1200746EA064602FA07F74FEA55
:10138000164646EA0706C3F1200722FA03F201FADD
:1013900007F721FA03F14FF0000342EA0702A7E73B
:1013A00046EA020646EA06464FEA164646EA0106BD
:1013B000BCBF46EA0646360C4FF000034FF0000271
:1013C0004FF0000194E72DE9804C9A46934670B4A3
:1013D00091E8380007C831EA400C48BF34EA430CB2
:1013E00003D5FFF7E6FDFFF780FFF0BCBDE8008CFA
:1013F0002DE9804C9A46934670B491E8380007C8AE
:1014000010F0804F08BF13F0804F03D100F005F8B3
:10141000FFF76BFFF0BCBDE8008C20F07F4780EA4F
:10142000030023F07F4C07EB0C03A3F57C5300F083
:101430000040A3F1FE0392F0000F00F0B38095F09E
:10144000000F00F077802DE901494FEA11404FEA83
:10145000144621EA004800FB06FC24EA064708FB84
:1014600006F607FB08F800FB07F718EB06484CEBFD
:10147000164C4FEA124B18EB07484FEA15464CEB57
:10148000174022EA0B4E0BFB06FC25EA06470EFB33
:1014900006F607FB0EFE0BFB07F71EEB064E4CEBAA
:1014A000164C4FF000061EEB074E4CEB174B18EB9B
:1014B0000B0840F1000018EB0E0B58EB000840F150
:1014C00000008F1A4FF000013CBFC943661B14BFD8
:1014D000B5EB040C00213CBFC943F61B4FEA17448F
:1014E0004EEA8E0E27EA04454FEA1C4704FB0762CA
:1014F0002CEA074C05FB07F70CFB05F604FB0CFC7C
:1015000016EB074642EB174216EB0C4642EB1C4229
:101510001BEB060658EB0202414146EA9E0601D546
:10152000BDE80189B619524141EB0101A3F1010364
:10153000BDE801894FEA14454FEA114724EA054600
:1015400021EA074C05FB07F406FB07F70CFB06F145
:1015500005FB0CFC11EB074144EB17444FEA124723
:1015600011EB0C4144EB1C4422EA074C05FB07F24B
:1015700006FB07F70CFB06F605FB0CFC16EB074613
:1015800042EB174216EB0C4642EB1C456A1854F12D
:10159000000148BF7047B619524141EB0101A3F168
:1015A0000103704795F0000F37D04FEA11424FEA20
:1015B000144721EA024624EA074C02FB07F106FB26
:1015C00007F70CFB06F402FB0CFC14EB074441EBA1
:1015D00017414FEA154714EB0C4441EB1C4125EA37
:1015E000074C02FB07F506FB07F70CFB06F602FBB0
:1015F0000CFC16EB074645EB174516EB0C4645EB86
:101600001C42121951F1000148BF7047B6195241EE
:1016100041EB0101A3F1010370474FEA14454FEA82
:10162000114724EA054621EA074C05FB07F106FBB2
:1016300007F70CFB06F24FF0000605FB0CFC12EB63
:10164000074241EB174112EB0C4251EB1C4148BFE2
:101650007047921841EB0101A3F1010370470000AC
:101660001CB504F067FD2E4804210023CA01CDE912
:1016700000102CA12E4805F057FA2E480321002314
:101680004FF40072CDE900102BA12F4805F04CFA61
:101690002E48022100230A02CDE900102CA12F4878
:1016A00005F042FA2E48032100234FF48072CDE961
:1016B00000102CA12E4805F037FA2E4803210023F4
:1016C0004FF48072CDE900102BA12E4805F02CFAC2
:1016D0002D4804210023CA01CDE900102BA12E487A
:1016E00005F022FA2D48032100234FF48072CDE942
:1016F00000102BA12D4805F017FA2D4806210023D4
:101700004FF48072CDE900102AA12D4805F00CFAA3
:101710002C48006804F0EEFD04F01EFD1CBD000026
:10172000E800002048583731315F5461736B000086
:10173000A9300008F0000020446973706C61795F83
:101740005461736B00000000891F0008EC0000204A
:1017500044485431315F5461736B0000611E0008CE
:10176000F400002055706C6F61645F5461736B000E
:101770007D4D0008F80000204B65795F5461736B64
:101780000000000091340008FC00002054696D65E1
:101790005F5461736B000000C14600089000002098
:1017A000536572766F5F5461736B0000D942000815
:1017B00000010020566F6963655F5461736B000020
:1017C000C94E0008E400002010B504F0B3FC054841
:1017D000047814B100200349087004F0BDFC2046D1
:1017E00010BD000030000020002011490870114990
:1017F00008701149087011490870114908701149A1
:1018000008700720104908701E2048700120887059
:101810000720C8701F210C48017101214171072068
:101820000949887120210848C1710121017270475E
:101830002F00002030000020350000203400002060
:101840003F00002040000020360000202DE9F04736
:10185000804605F0D3F9814641480068A9EB0000B5
:10186000B0F5FA7F05D93F48007810B100203D4916
:1018700008703B48C0F800903B480078032190FB7B
:10188000F1F201FB1200394901F800803648007876
:10189000401C354908703348007820B1012809D030
:1018A000022855D10DE0324880F8008001202D49F2
:1018B000087051E02E4880F8018002202949087004
:1018C0004AE02B4880F8028000202649087028480A
:1018D0000478457886782548047045708670012024
:1018E00024490870182C1FDBA4F11800C7B2032F7D
:1018F0002DDA172D2BDC3B2E29DC04F01BFC07EB2B
:1019000047001D490D5407EB47000844467001206D
:1019100007EB4701184A11448870184908701848A5
:10192000077004F019FC12E0172C10DC3B2D0EDCC4
:101930003B2E0CDC04F0FEFB1248047045708670F0
:101940000120114908701149087004F005FC03E0FA
:1019500000200449087000BF00BFBDE8F087000008
:101960004800002041000020350000203100002008
:101970004200002034000020360000203F000020FC
:10198000400000202C0000202F000020300000200C
:1019900000BFFEE72DE9F05F05460E461746984664
:1019A0004FF0000B3148006830B100235A1E194631
:1019B0002E48006804F090FE2D4800784FF46161D5
:1019C00048432C490978C1EB011100EB81002A49F9
:1019D000097800EB01094FF461606843C6EB06111A
:1019E00000EB810000EB070AAAEB09044AF6C000ED
:1019F000844202DD4000241A04E02048844201DAD7
:101A00001F4804441F49097849B9B8F1000F06D1AD
:101A1000201E01DB014600E04142032912DD14488B
:101A20000570144806701448077005F0E7F8164969
:101A300008600120154908700020124908704FF015
:101A4000010B05E005F0DAF80F4908604FF0000BD4
:101A50000648006830B100231A461946034800685A
:101A600004F028FF5846BDE8F09F0000E000002089
:101A7000C4000020C5000020C60000204057FFFF22
:101A80008051010010010020D0000020D40000206F
:101A90002DE9F04105F0B2F8044620480068201A0C
:101AA000B0F5FA7F01D2BDE8F0811D4801681D48FC
:101AB000006806F00FF8074605F032FD21F00041FE
:101AC00005464FF02042184B05F0F4FC09D80120E0
:101AD0001649087016490870164804600F480460DB
:101AE0001AE0154801681548006805F0F3FF07463D
:101AF00005F016FD21F0004105460022104B05F0CF
:101B0000D9FC09D801200F49087002200849087043
:101B1000084804600148046000BFC4E70C010020CD
:101B2000B4000020AC0000209999C93F8A00002031
:101B30009400002098000020B8000020B000002091
:101B40000000F03F8B00002010B505F057F8044668
:101B50000C480068201AB0F5FA7F00D210BD0A4880
:101B600000780A490978884209D00120084908709C
:101B7000042008490870084804600248046000BF57
:101B8000ECE7000008010020800000208100002018
:101B90008900002094000020980000202DE9F047E3
:101BA00005F02CF8044616480068201AB0F5FA7FB4
:101BB00001D2BDE8F0871348006805F02DFE81468C
:101BC00011480168484605F085FF064605F0A8FC67
:101BD00021F00041074605F017FA05464FF0804115
:101BE000284605F045FF09D8012008490870032060
:101BF00007490870074804600148046000BFD8E73F
:101C000004010020BC000020840000208800002087
:101C1000940000209800002010B50748007850B1CB
:101C200004F0ECFF05490968401AB0F5967F02D927
:101C300000200149087010BD6C00002070000020D9
:101C400010B50848007858B104F0D8FF0649096873
:101C5000401A47F23051884202D9002001490870E9
:101C600010BD000060000020640000200EB56A4630
:101C700001A902A801F046F91E4800789DF8081055
:101C800088420DD11B4840789DF80410884207D146
:101C90009DF8000020B91748807808B101200EBDDA
:101CA0001448C0789DF8081088420DD11148007979
:101CB0009DF80410884207D19DF8000020B90D4816
:101CC000407908B10220EAE70A4880799DF80810B7
:101CD00088420DD10748C0799DF80410884207D189
:101CE0009DF8000020B90348007A08B10320D6E728
:101CF0000020D4E73600002008B50121042002F0BE
:101D0000EFF904208DF803002020ADF80000032037
:101D10008DF802006946024801F004F808BD000091
:101D20000008014008B50121042002F0D9F9102073
:101D30008DF803002020ADF8000003208DF802008C
:101D40006946024800F0EEFF08BD000000080140AF
:101D50002DE9F04100F066F820211C4801F0B6F8AA
:101D6000002831D100BF2021184801F0AFF8002829
:101D7000F9D000BF2021154801F0A8F80128F9D0BA
:101D800000F028F8044600F025F8054600F022F897
:101D9000064600F01FF8074600F01CF88046202198
:101DA0000A4801F0A5F8372000F0DAF820210748AA
:101DB00001F0A0F8601930443844404504D104488B
:101DC000046045608660C760BDE8F081000801409E
:101DD0009806002070B50025002400BF1CE000BF5D
:101DE00020210F4801F072F80028F9D0282000F0D7
:101DF000B7F86006040E2021094801F067F80128B1
:101E000001D144F0010400BF2021054801F05EF833
:101E10000128F9D0681CC5B2082DE0DB204670BD52
:101E20000008014010B5FFF77DFF20210B4801F0AD
:101E300061F81E2000F094F82021084801F058F8BD
:101E4000142000F080F82021044801F053F81E20EF
:101E500000F086F8FFF750FF10BD000000080140B9
:101E600008B504F0CBFE009000BF5DE04FF4FA71BE
:101E7000684604F005FA72B6FFF76AFF62B60024FE
:101E80002A480068002838D028488068A0B327482E
:101E90000068642831D8254880683C282DD823491B
:101EA000486805F0D1FC0746214905F015FD0546B7
:101EB0001E49086805F0C8FC0646294605F05CFB8B
:101EC0001C4908601949C86805F0BEFC0746184956
:101ED00005F002FD05461549886805F0B5FC064683
:101EE000294605F049FB14490860012401201349E3
:101EF0000870FFF7CDFD03E0FFE702200F490870EF
:101F00000F48007830B92CB946221021022001F088
:101F100085FE08E00A48007828B924B12022102163
:101F2000022001F07BFE00BFA0E700009806002021
:101F3000CDCCCC3DB0000020AC000020C100002082
:101F4000A9000020704710B5044603E04FF47A70F2
:101F500000F006F8201EA4F10104F7D110BD000026
:101F600010B50446B4F5803F01D34FF6FF7400214D
:101F7000044802F050FB00BF024802F0D7FAA0422A
:101F8000FAD310BD00080040ACB004F037FE2B902F
:101F900000BF4FF0FF302A9029902890FF20279013
:101FA00026900124002025902490FF202390229049
:101FB000219020901F901E901D90FDE364212BA87E
:101FC00004F05EF9FFF700FC1B90FE4890F800A0BB
:101FD000FD4890F800B0FD480078199004F0AAF888
:101FE000FB4800788DF87000F94840788DF8710052
:101FF000F74880788DF87200F64800781890F64817
:1020000000781790F5480778F54800781A9001F0A5
:1020100051F98046F3480578F34890F80090F3486A
:102020000678179810B10020EB49087004F094F876
:1020300067B104F0E3FDEE490968401AB0F5C87FC6
:1020400004D900270020E549087001241B9840B1FD
:102050009DF872209DF871109DF870000023FFF725
:1020600099FC27991898884201D0012000E00020AF
:1020700016902298824506D12198834503D1209954
:102080001998884201D0012000E00020159026997F
:102090001B98884201D0012000E000201490259870
:1020A000874201D0012000E00020139024991A9863
:1020B000884201D0012000E0002012902398804542
:1020C00001D0012000E0002011901F98854202D12C
:1020D0001E98814501D0012000E0002010901D983D
:1020E000864201D0012000E000200F90169868B9C8
:1020F000179858B9139848B9149838B9119828B94D
:10210000159818B9109808B90F9820B1012416989D
:1021100008B101F005FCCDF888A0CDF884B019987D
:102120002090189820B101286FD002286ED19FE22C
:10213000B049B148006805F0CFFB099005F04CFBB1
:102140000E90AC49AD48006805F0C6FB099005F05B
:1021500043FB0D90AA4800680C902A990E9888427B
:1021600007D129990D98884203D128990C98884263
:1021700001D0012000E000200B902CB90B9818B979
:10218000139808B9129808B1012000E000200A90C5
:102190000A9800287ED09BA20121084601F0F6FD96
:1021A00000219548006805F063FC30D8924800682B
:1021B00005F012FB0223024603210990012001F0E1
:1021C0007DFD91A20521012001F0E0FD89498A48A9
:1021D000006805F081FB089005F0FEFA0A21B0FBCB
:1021E000F1F201FB12000123024606210990184674
:1021F00001F064FD43220721012001F00FFD83A2BD
:102200000821012001F0C2FD35E0C9E02FE280A2E3
:102210000321012001F0BAFD7748006880F00040FA
:10222000089005F0D9FA0223024604210990012002
:1022300001F044FD74A20621012001F0A7FD6E48C3
:10224000006880F000406B49079005F045FB08905E
:1022500005F0C2FA0A21B0FBF1F201FB12000123E2
:10226000024607210990184601F028FD4322082163
:10227000012001F0D3FC67A20121022001F086FDBC
:102280005E48006805F0A8FA02230246032109907F
:10229000184600E083E001F011FD5BA20521022059
:1022A00001F074FD53495548006805F015FB08908E
:1022B00005F092FA0A21B0FBF1F201FB12000123B2
:1022C000024606210990022001F0F8FC52A20721E3
:1022D000022001F05BFD52A20121032001F056FD16
:1022E0004748006800280DDA49A20321084601F09A
:1022F0004DFD05234248006842420421032001F0BD
:10230000DDFC0BE045A20321084601F03FFD05235B
:102310003B4804210268032001F0D0FC41A20921BE
:10232000032001F033FD012F05D140A2012104203B
:1023300001F02CFD28E0022F05D141A2012104204B
:1023400001F024FD20E0032F05D142A20121042049
:1023500001F01CFD18E0042F11D143A2012104203B
:1023600001F014FD0123424802780821042001F005
:10237000A5FC40A20921042001F008FD04E040A2D0
:102380000121042001F002FD0B9808B1FFF780FB4A
:102390000E982A900D9829900C982890002494E388
:1023A00004F02CFC0E900A209AFBF0F0C0B20D90C5
:1023B0000A209AFBF0F100FB11A0C0B20C900A2099
:1023C00068E00000C4000020C5000020C600002016
:1023D0002C000020A9000020C7000020940000204D
:1023E000C1000020DC000020DD000020DE00002015
:1023F0009800002000002041AC000020B000002028
:10240000BC000020543A00002E00000020200000F4
:102410002D000000483A0000252020202000000068
:10242000573A0000672020202000000054656D709E
:102430002055706C6F6164656420202000000000EE
:1024400048756D69642055706C6F61646564202007
:10245000000000005765696768742055706C6F61F3
:10246000646564200000000053746174757320007B
:10247000800000202055706C6F616465640000006E
:10248000202020202020202020202020202020204C
:10249000000000009BFBF0F0C0B20B900A209BFBF9
:1024A000F0F100FB11B0C0B20A900A21199890FB1C
:1024B000F1F0C0B20990199890FBF1F201FB120003
:1024C000C0B20890FE4909780D98884201D00120D9
:1024D00000E000200790FB4909780C98884201D061
:1024E000012000E000200690F74909780B98884207
:1024F00001D0012000E000200590F44909780A98F5
:10250000884201D0012000E000200490F0490978C1
:102510000998884201D0012000E000200390ED4995
:1025200009780898884201D0012000E0002002903C
:10253000079848B9069838B9059828B9049818B981
:10254000039808B9029808B1012000E0002001902A
:10255000019838B934B9E0490E980968401AB0F5C5
:102560007A7F7CD3DC490E980860DC48007880458F
:1025700000D184B1D94880F80080B8F1000F05D0AF
:10258000D7A20121084601F001FC04E0D9A20121F3
:10259000084601F0FBFB079800B94CB10D983030AC
:1025A000C2B20121022001F0DDFAC5490D98087080
:1025B000069800B94CB10C983030C2B20321022009
:1025C00001F0D0FABF490C980870CF48007800B1EC
:1025D0003CB13A220521022001F0C4FA0120CA4987
:1025E0000870059800B94CB10B983030C2B2072181
:1025F000022001F0B7FAB4490B980870049800B9AA
:102600004CB10A983030C2B20921022001F0AAFA76
:10261000AE490A980870BC48007800B124B13A224B
:102620000B21022001F09EFA039800B94CB10998E1
:102630003030C2B20D21022001F094FAA449099869
:102640000870029800B94CB108983030C2B20F211E
:10265000022001F087FA9F490898087000E006E020
:10266000AFF2E4120121042001F090FB00242CE2DF
:10267000A648007800B1012424B9109810B90F9829
:1026800000287DD02DB9A2A20121084601F07EFBD1
:1026900004E0A4A20121084601F078FBA6A20121D2
:1026A000022001F073FB012D4AD1B9F1000F23D1B3
:1026B0003E220321022001F0B1FAA0480278022351
:1026C0000421184601F0FAFA3C220621022001F00A
:1026D000A5FA3A220721022001F0A0FA9748427891
:1026E00002230821184601F0E9FAAFF2E0220A219C
:1026F000022001F04BFB3CE09048027802230321CA
:10270000184601F0DBFA3A220521022001F086FA90
:102710003E220621022001F081FA884842780223F5
:102720000721184601F0CAFA3C220921022001F0D3
:1027300075FAAFF228320A21022001F027FB18E0D7
:102740007E48027802230321184601F0B7FA3A22A4
:102750000521022001F062FA78484278022306211E
:10276000184601F0ABFAAFF2E0220821022001F096
:102770000DFB73A20121032001F008FB022D00E0F4
:10278000A2E14CD1B9F1000F25D13E220321084628
:1027900001F044FA6948C27802230421032001F0C1
:1027A0008DFA3C220621032001F038FA3A22072153
:1027B000032001F033FA00E092E16048027902233D
:1027C0000821032001F07AFAAFF2C0320A21032077
:1027D00001F0DCFA3CE05948C278022303210846A4
:1027E00001F06CFA3A220521032001F017FA3E228B
:1027F0000621032001F012FA504802790223072132
:10280000032001F05BFA3C220921032001F006FAC3
:10281000AFF208420A21032001F0B8FA18E0474855
:10282000C27802230321084601F048FA3A22052122
:10283000032001F0F3F94148027902230621032025
:1028400001F03CFAAFF2C0320821032001F09EFAF9
:102850003CA20121042001F099FA032D76D1B9F1AF
:10286000000F7FD13E220321042001F0D7F9334825
:10287000827902230421084601F020FA3C22062135
:10288000042001F0CBF93A220721042001F0C6F917
:102890002A48C27902230821042001F00FFA2AA253
:1028A0000A21042001F072FA0A2E54DA20220D21A6
:1028B000042001F0B3F9012332460E21042047E041
:1028C00020010020210100202201002023010020FE
:1028D00024010020250100201C01002027010020E8
:1028E0005B42542053796E635D20202020202020FD
:1028F000000000005B4E6F2053796E635D20202046
:102900002020202000000000260100203F000020A1
:102910002020416C61726D20436C6F636B732020CB
:10292000000000002020202045444954494E472003
:102930002020202000000000313A00003600002056
:10294000323A0000333A000020563A0042E009E0F3
:1029500001F0B4F9B3E0022332460D21042001F066
:10296000ADF9ACE05F48827902230321042001F035
:10297000A5F93A220521042001F050F93E22062152
:10298000042001F04BF95748C279022307210420A3
:1029900001F094F93C220921042001F03FF9AFF243
:1029A00058020A21042001F0F1F90A2E0BDA202244
:1029B0000D21042001F032F9012332460E210420BA
:1029C00001F07CF97BE0022332460D21042001F066
:1029D00075F974E0042D40D1424882790223032125
:1029E000042001F06BF93A220521042001F016F9C8
:1029F0003C48C27902230621042001F05FF93AA283
:102A00000821042001F0C2F90A2E15DA20220B2138
:102A1000042001F003F9012332460C21042001F0C7
:102A20004DF93C220D21042001F0F8F820220E215E
:102A3000042001F0F3F842E0022332460B21042087
:102A400001F03CF93C220D21042001F0E7F820229E
:102A50000E21042001F0E2F831E0224882790223BD
:102A60000321042001F02AF93A220521042001F073
:102A7000D5F81C48C27902230621042001F01EF972
:102A8000AFF23C120821042001F080F90A2E0BDA83
:102A900020220C21042001F0C1F8012332460D212F
:102AA000042001F00BF905E0022332460C2104203A
:102AB00001F004F920220E21042001F0AFF80024D7
:102AC0001F95CDF878901D9600BF00BF18982790ED
:102AD00025971A982490CDF88C801B98269000BFDB
:102AE000FFF76CBA3600002020563E0010B54FF4B8
:102AF000A0610348FDF75DFD00200249088010BD7C
:102B0000980100201800002008B50121042001F0E0
:102B1000E7FA10208DF803000220ADF80000032032
:102B20008DF8020069461C4800F0FCF800220221E2
:102B3000194800F0E1F9FA20FFF705FA0122022115
:102B4000154800F0D9F94FF4FA70FFF7FCF9FFF7D8
:102B5000CDFF03E04FF4FA70FFF7F5F90FA110A0D5
:102B600000F03EF80028F5D103E04FF4FA70FFF7CB
:102B7000EAF90AA10CA000F033F80028F5D103E02F
:102B80004FF4FA70FFF7DFF90BA10DA000F028F861
:102B90000028F5D108BD0000000801404F4B00009F
:102BA00041540D0A0000000041542B43574D4F443F
:102BB000453D310D0A000000474F542049500000A8
:102BC00041542B43574A41503D22787762222C22B0
:102BD000787762313233343536220D0A0000000036
:102BE0002DE9F04104460D46C8262046FDF77DFC40
:102BF00087B23A4621460D4802F0C9F80FE000F0CE
:102C000019F848B929460A48FDF75DFC20B1FFF7DD
:102C10006DFF0020BDE8F0810A20FFF794F9301E17
:102C2000A6F10101CEB2EAD10120F3E70044004051
:102C3000980100200A48008808B901207047084818
:102C4000008808490988884203D100200449088087
:102C5000F4E703480088034908800120EEE70000FC
:102C6000180000201A0000202DE9F041C0B00446F1
:102C70000D4600262B4622461DA16846FDF722FB85
:102C800030E0FFF733FF6846FDF72FFC1FFA80F8AE
:102C9000424669461E4802F07AF8322715E0642061
:102CA000FFF751F9FFF7C6FF78B91AA11A48FDF7E7
:102CB0000AFC20B1FFF71AFF40B0BDE8F08117A170
:102CC0001548FDF700FC00B104E0381EA7F1010132
:102CD000CFB2E4D100BF701CC6B24FF4FA70FFF758
:102CE00032F900BF022ECCDBFFF700FF00BFE3E7A5
:102CF00041542B4D5154545055423D302C22257394
:102D0000222C222573222C312C300D0A00000000C9
:102D1000004400404F4B0000980100204552524FA4
:102D2000520000002DE9F041024600250026002057
:102D300000230024002791F803C00CF00F0591F840
:102D400003C00CF0100CBCF1000F03D091F802C0CE
:102D50004CEA050591F800C0BCF1000F31D01468B1
:102D600000202BE04FF0010C0CFA00F3B1F800C08A
:102D70000CEA03069E4220D183004FF00F0C0CFAA0
:102D800003F7BC4305FA03FC4CEA040491F803C0C2
:102D9000BCF1280F06D14FF0010C0CFA00FCC2F870
:102DA00014C00AE091F803C0BCF1480F05D14FF000
:102DB000010C0CFA00FCC2F810C0401C0828D1D34A
:102DC0001460B1F800C0BCF1FF0F34DD546800207E
:102DD0002EE000F1080C4FF0010808FA0CF3B1F8EE
:102DE00000C00CEA03069E4221D183004FF00F0C75
:102DF0000CFA03F7BC4305FA03FC4CEA040491F80F
:102E000003C0BCF1280F05D100F1080C08FA0CF83A
:102E1000C2F8148091F803C0BCF1480F07D100F14B
:102E2000080C4FF0010808FA0CF8C2F81080401C9A
:102E30000828CED35460BDE8F0810000F0B50A4602
:102E4000002300240021002500F00046B6F1004FC9
:102E500002D11D4EF16901E01B4E7168C0F30345BC
:102E600083B200F44016B6F5401F08D121F070611E
:102E7000154E766826F07066134F7E6012E000F4FF
:102E80008016B6F5801F06D1032606FA05F4A14385
:102E900041F0706106E0460D360103FA06F6B143D3
:102EA00041F0706122B1460D360103FA06F6314356
:102EB00000F00046B6F1004F02D1034EF16101E08F
:102EC000014E7160F0BD000000000140024600208C
:102ED00093680B400BB1012000E0002070470246D0
:102EE0000020D3680B400BB1012000E000207047A8
:102EF00041617047016170470AB1016100E04161C1
:102F00007047000070B506460C4615460E4800682E
:102F100030B100235A1E19460B48006803F0DCFB51
:102F20000A48007830700A48007820700948007814
:102F300028700548006830B100231A461946024837
:102F4000006803F0B7FC70BDE0000020C400002062
:102F5000C5000020C600002070B50024002507E051
:102F600000F05EF804440A20FEF7EDFF681CC5B2CD
:102F7000052DF5DB0520B4FBF0F00149086070BDBC
:102F8000200000202DE9F84F4FF00009CA4616E056
:102F900000F046F81D490860084600681C490968A9
:102FA000884205D91948006819490968401A8144BE
:102FB0000520FEF7C8FF0AF1010000F0FF0ABAF190
:102FC000050FE5DBB9F1000F1BD0484604F03CFCCF
:102FD0001049009004F03EFB834604F0A1FA074636
:102FE00000220D4B04F04EF8054604F0A3F9044608
:102FF000052C03DA00200949086005E00748046051
:1030000002E0002005490860BDE8F88F1C000020A0
:10301000200000200000A040003481402400002057
:1030200070B50120FEF79CFF4FF480411D48FFF76B
:103030005FFF002400BF4FF400411A48FFF746FF2E
:103040000128F8D000251AE04FF480411548FFF719
:1030500051FF64000120FEF783FF4FF480411148C7
:10306000FFF746FF4FF400410E48FFF72FFF0128FE
:1030700000D1641C0120FEF773FF681CC5B2182D37
:10308000E2DB4FF480410748FFF734FF84F400048B
:103090000120FEF765FF4FF480410248FFF728FF4B
:1030A000204670BD000C014008B503F0A7FD00905C
:1030B00000BF93E0C821684603F0E2F803F03AF855
:1030C000FFF760FF4648046803F046F8454804608F
:1030D0004548007800287DD0FEF760FD4348007821
:1030E00090B14348007878B10020414908704149C7
:1030F00008704149086000F07BFB00203B490870E4
:103100003E4908703E490870052C13DD01203B49FB
:10311000087000203A49087035480078002836D0F9
:103120000020334908703449086000F061FB01F069
:10313000BDF82CE03148007830B3032C24DA304855
:103140000078401C2E4908700846007802281EDBD3
:103150000120274908702749087000202849087075
:103160002649087001F0A7F82648007820B926A261
:103170000121042000F00AFE042001F099FE03F072
:103180003DFD1D49086002E000201D4908701848F7
:103190000078F8B100F034FB03F030FD16490968FF
:1031A000401A40F23A71884207D31E21082002F0EB
:1031B00083F803F023FD10490860052C0DDD002085
:1031C0000B4908700C49086000F012FB01200B4904
:1031D000087000E001E001F069F800BF6AE7000054
:1031E00024000020BC000020C0000020C2000020FD
:1031F00013010020C3000020140100201101002051
:1032000012010020A9000020454D50545920424F82
:1032100058212020202020200000000000BFFEE7D1
:1032200008B50121082000F05BFF4FF48040ADF8A5
:10323000000010208DF8030003208DF8020069467D
:103240000948FFF76FFD4FF40040ADF8000048203B
:103250008DF8030069460448FFF764FD4FF4804190
:103260000148FFF747FE08BD000C014070B5044659
:103270000D4603F0C3FC06460A48007878B10A48B8
:10328000007884420BD109480078854207D108486C
:103290000068301AB0F5967F01D2012070BD002081
:1032A000FCE700006C000020740000207500002086
:1032B0007000002010B50948007808B9002010BD42
:1032C00003F09CFC044606480068201A0549884221
:1032D00001D90020F3E70120F1E70000D40000202D
:1032E000D0000020E09304000146042901DB002007
:1032F0007047074800EB0110007B30B10020044A02
:1033000002EB011210730120F2E70020F0E7000049
:10331000A806002008B50121082000F0E1FE2820C1
:103320008DF8030003208DF802004FF48070ADF893
:10333000000069462148FFF7F5FC4FF40070ADF836
:10334000000069461D48FFF7EDFC4020ADF8000085
:1033500069461A48FFF7E6FC8020ADF80000694690
:103360001648FFF7DFFC00200EE00021144A02EBB4
:1033700000129171124A02EB00129160104A02EBA6
:1033800000121173411CC8B20428EEDB0B480C4933
:1033900008608015888009480861411508488182C5
:1033A00006480749086240210548818403480449CA
:1033B000086380210248818608BD0000000C01409E
:1033C000A806002010B50446042C01DB002010BD27
:1033D000074A02EB04129188054A02EB04121068B6
:1033E000FFF774FD012800D1F1E70020EFE70000AE
:1033F000A806002070B5002444E02046FFF7E2FF55
:10340000054603F0FBFB0646204800EB04108079DC
:1034100020B101280DD002282BD123E045B1012095
:103420001A4901EB04118871184800EB04108660FA
:1034300025E08DB1154800EB04108068301A1E2875
:103440000FD30120114901EB0411087302200F4929
:1034500001EB0411887104E000200C4901EB041118
:1034600088710CE025B90020084901EB041188712E
:1034700005E00020054901EB0411887100BF00BF81
:10348000601CC4B2042CB8DB70BD0000A80600208C
:1034900008B503F0B3FB009000BF95E11421684626
:1034A00002F0EEFEFFF7A6FF02F044FEC7480578E3
:1034B00002F052FEC6480078B8B10020FFF714FFB2
:1034C00058B90120FFF710FF38B90220FFF70CFFB1
:1034D00018B90320FFF708FF38B10120BD49087073
:1034E00000F0E4FE642002F0B1FE0020FFF7FCFED5
:1034F000C8B102F01FFEB848007810B10020B649EC
:103500000870B2480078401CB0490870084600783E
:10351000022801DD002008700120B049087002F087
:103520001BFE00F0FDF90120FFF7DEFE00283ED073
:10353000022D3CD102F0FEFDA7480478A848067889
:1035400034B90120A44908700020A54908702BE077
:10355000012C0BD11EB90120A149087024E00220E2
:103560009D49087000209E4908701DE0022C0BD177
:103570001EB901209A49087016E003209649087088
:103580000020974908700FE0032C08D11EB90120D4
:103590009349087008E004208F49087004E0042C67
:1035A00002D100208C49087002F0D6FD00BF022035
:1035B000FFF79AFE00286FD0022D7ED102F0BAFDEF
:1035C0008548047886480678012C1FD16EB9854855
:1035D0000078002805DD83480078401E8149087086
:1035E00010E017207F4908700CE07E4840780028E2
:1035F00005DD7C484078401E7A49487002E03B2057
:103600007849487001207849087053E0022C20D195
:103610006EB97448C078002805DD7248C078401E35
:103620007049C87011E017206E49C8700DE06D48F0
:103630000079002806DD6B480079401EC1B2694858
:10364000017102E03B216748017101206649087061
:1036500030E0032C21D16EB962488079002805DD65
:1036600060488079401E5F49887111E017205D49EC
:1036700088710DE05B48C079002806DD5948C079A3
:10368000401EC1B25748C17102E03B215548C1718B
:103690000120554908700DE00FE0042C0AD1534871
:1036A0000078012806DD51480078401E4F49087017
:1036B00001F0CCFE02F050FD00BF0320FFF714FE26
:1036C00000286FD0022D7ED102F034FD42480478EC
:1036D00043480678012C1FD16EB94248007817285C
:1036E00005DA40480078401C3E49087010E0002090
:1036F0003C4908700CE03B4840783B2805DA3948E3
:103700004078401C3749487002E000203549487035
:1037100001203549087053E0022C20D16EB93148A0
:10372000C078172805DA2F48C078401C2D49C8708A
:1037300011E000202B49C8700DE02A4800793B2891
:1037400006DA28480079401CC1B22648017102E01F
:1037500000212448017101202349087030E0032C26
:1037600021D16EB91F488079172805DA1D48807964
:10377000401C1C49887111E000201A4988710DE035
:103780001848C0793B2806DA1648C079401CC1B2F7
:103790001448C17102E000211248C1710120124990
:1037A00008700DE00FE0042C0AD1104800780728BB
:1037B00006DA0E480078401C0C49087001F058FEEB
:1037C00002F0CAFC00BF00BF68E60000A9000020AC
:1037D000C3000020C2000020DC000020C700002041
:1037E000DD000020360000203F000020DE00002029
:1037F00010B501210148FFF77DFB10BD0008014015
:1038000010B501210648FFF76AFB20B901210448E1
:10381000FFF770FB03E001210148FFF769FB10BDD2
:103820000008014008B50121042000F059FC1020D7
:103830008DF803000120ADF8000003208DF8020090
:1038400069460448FFF76EFA01210248FFF752FB70
:1038500008BD00000008014010B510210148FFF725
:1038600035FB10BD000C014008B50121082000F017
:1038700037FC48208DF803001020ADF8000003202D
:103880008DF8020069460248FFF74CFA08BD0000B7
:10389000000C014000BFFEE77047000070B500213A
:1038A00000230F22C47804B3154C246804F4E064A8
:1038B000C4F5E064210AC1F10403CA40447804FA63
:1038C00003F184781440214309010E4C0678A15578
:1038D000047804F01F050124AC4005786D11AD009B
:1038E00005F1E025C5F8004109E0047804F01F0562
:1038F0000124AC40044D0678761145F8264070BD91
:103900000CED00E000E400E080E100E0024901434A
:10391000024A1160704700000000FA050CED00E05B
:1039200070B51448006830B100235A1E194611487A
:10393000006802F0D1FE00240EE00021204600F0D5
:1039400000F9002504E0002000F08CFA681CC5B2E4
:10395000802DF8DB601CC4B2082CEEDB0548006843
:1039600030B100231A4619460248006802F0A2FF4F
:1039700070BD00001400002008B50121042000F0F3
:10398000AFFB14208DF8030003208DF802004FF4E4
:103990008050ADF8000069460A48FFF7C3F94FF4BC
:1039A0000060ADF8000069460648FFF7BBF9012248
:1039B00011030448FFF7A0FA0122D1020148FFF7E2
:1039C0009BFA08BD0008014070B50546002419E0C7
:1039D00080202041284008B1012000E0002002465C
:1039E0004FF400610E48FFF787FA012211030C48DB
:1039F000FFF782FA00224FF480510948FFF77CFA62
:103A0000601CC4B2082CE3DB012211030448FFF759
:103A100073FA00224FF480510148FFF76DFA70BD30
:103A20000008014010B50122D1020A48FFF764FAEC
:103A3000012211030748FFF75FFA00224FF40061EB
:103A40000448FFF759FA00224FF480510148FFF76C
:103A500053FA10BD0008014010B500224FF4006178
:103A60000648FFF749FA012211030448FFF744FA18
:103A70000122D1020148FFF73FFA10BD00080140C2
:103A800070B5002406E0002500E06D1CB5F57A7FD6
:103A9000FBD3641CB4F57A7FF5D3FFF76DFFAE203E
:103AA00000F0D0F9D52000F0CDF9802000F0CAF95F
:103AB000A82000F0C7F93F2000F0C4F9D32000F09F
:103AC000C1F9002000F0BEF9402000F0BBF9A120B0
:103AD00000F0B8F9C82000F0B5F9DA2000F0B2F92A
:103AE000122000F0AFF9812000F0ACF9CF2000F0F7
:103AF000A9F9D92000F0A6F9F12000F0A3F9DB2004
:103B000000F0A0F9302000F09DF9A42000F09AF90F
:103B1000A62000F097F98D2000F094F9142000F011
:103B200091F9AF2000F08EF9FFF7FAFE70BD10B5E5
:103B30000246012000E050430B1EA1F10101FAD121
:103B400010BD70B505460C4645F0B00000F07AF99E
:103B5000102141EA141000F075F904F00F0000F094
:103B600071F970BD2DE9F04706460F461546302D18
:103B700006DB392D04DCA5F1300000F0FF0906E07A
:103B80003A2D02D14FF00A0901E0BDE8F0870F2F6E
:103B900000DDFAE7012E01DB032E00DDF5E71D480D
:103BA000006830B100235A1E19461A48006802F016
:103BB00093FD701E40064FEA106A00241BE07A1E37
:103BC000D206110E0AEB0402D0B2FFF7BAFF4FF093
:103BD00000080BE0104901EB891108EB0412885C26
:103BE00000F040F908F1010000F0FF08B8F1100FF3
:103BF000F0DB601CC4B2042CE1DB0648006830B185
:103C000000231A4619460348006802F053FE00BF1D
:103C1000BBE7000014000020F28100082DE9F0410C
:103C200005460E4617462348006830B100235A1E49
:103C300019462048006802F04FFD721ED206110E90
:103C40006A1E5206100EFFF77CFF002409E0A7F160
:103C50002001194A02EB0111085D00F003F9601C14
:103C6000C4B2082CF3DB721ED206110E6A1E0123A9
:103C700003EB4202D0B2FFF764FF00240BE0A7F190
:103C800020010D4A02EB011204F10801505C00F022
:103C9000E9F8601CC4B2082CF1DB0648006830B1BA
:103CA00000231A4619460348006802F003FEBDE8E7
:103CB000F081000014000020C27B00082DE9F047CD
:103CC00006460F46914698462E48006830B10023BC
:103CD0005A1E19462B48006802F0FEFC002442E000
:103CE000A8EB0400411E0A20FFF721FFB9FBF0F00A
:103CF0000A21B0FBF1F201FB120000F1300A3A197F
:103D0000521ED206110E721E5206100EFFF719FF38
:103D1000002509E0AAF120011B4A02EB0111485DD0
:103D200000F0A0F8681CC5B2082DF3DB3A19521E4A
:103D3000D206110E721E012303EB4202D0B2FFF72E
:103D400000FF00250BE0AAF120010F4A02EB01124F
:103D500005F10801505C00F085F8681CC5B2082D1B
:103D6000F1DB601CC4B24445BADB0648006830B1E0
:103D700000231A4619460348006802F09BFDBDE87F
:103D8000F087000014000020C27B00082DE9F047F6
:103D900006460F4690462948006830B100235A1E57
:103DA00019462648006802F097FC002435E018F810
:103DB00004903A19521ED206110E721E5206100EAF
:103DC000FFF7BFFE002509E0A9F120011C4A02EB24
:103DD0000111485D00F046F8681CC5B2082DF3DB00
:103DE0003A19521ED206110E721E012303EB420233
:103DF000D0B2FFF7A6FE00250BE0A9F12001104A82
:103E000002EB011205F10801505C00F02BF8681C70
:103E1000C5B2082DF1DB601CC4B218F804000028FC
:103E2000C5D10648006830B100231A461946034838
:103E3000006802F03FFDBDE8F0870000140000209C
:103E4000C27B000810B50446FFF7ECFD7820FFF7B1
:103E5000BBFD0020FFF7B8FD2046FFF7B5FDFFF7DB
:103E6000FBFD10BD10B50446FFF7DCFD7820FFF721
:103E7000ABFD4020FFF7A8FD2046FFF7A5FDFFF7AB
:103E8000EBFD10BD00B589B00121084600F018F91E
:103E90000121082000F024F90121084600F020F952
:103EA00001212748FEF7CAFF01212648FEF7C6FF79
:103EB00018208DF823000820ADF8200003208DF88D
:103EC000220008A92048FEF72DFF4FF0804000F0A7
:103ED00030FB0020ADF81A00ADF8160044F61F6064
:103EE000ADF818004720ADF8140000208DF81C0034
:103EF00005A94FF0804000F091FB01A800F07FFB86
:103F00006020ADF804000020ADF80C000120ADF8F1
:103F1000060040F2DC50ADF80A0001A94FF08040E5
:103F200000F00EFB0821C80600F05CFB01218807A9
:103F300000F0E4FA0121880700F0ECFA09B000BDB6
:103F40000002300000011800000C014010B50446CA
:103F500021464FF0804000F05CFB10BD70B588B08A
:103F60003548007890B13548027835A16846FCF7AD
:103F7000A9F9694635A0FEF777FE30480078374941
:103F8000087000202C49087008B070BD34480078D3
:103F9000D8B13448006803F03FFC064603F0C0FA8D
:103FA000044622460B4630A16846FCF78BF9694669
:103FB0002FA0FEF759FE2B48006803F02DFC304976
:103FC0000860002026490870DEE72E480078B0B16E
:103FD0002D48006803F0A4FA044622460B4622A1AD
:103FE0006846FCF76FF9694628A0FEF73DFE2648B3
:103FF00000682B490860002022490870C4E729485E
:104000000078B0B12848006803F08AFA04462246D6
:104010000B4615A16846FCF755F9694623A0FEF743
:1040200023FE214800682549086000201D490870CA
:10403000AAE700BFA8E70000890000208000002058
:104040005354415455533A256400000073746D3342
:10405000322F7374617475730000000081000020BA
:1040600088000020BC000020252E316600000000E2
:1040700073746D33322F77656967687400000000D0
:10408000840000208A000020AC00002073746D338F
:10409000322F74656D706572617475726500000011
:1040A000B40000208B000020B000002073746D333A
:1040B000322F68756D69646974790000B80000205A
:1040C00029B1064AD2690243044BDA6104E0034A8B
:1040D000D2698243014BDA61704700000010024050
:1040E00029B1064A92690243044B9A6104E0034AEB
:1040F00092698243014B9A617047000000100240B0
:1041000030B500210022002400232D4D6D6805F0FC
:104110000C0121B1042905D0082923D105E0294D3E
:10412000056022E0274D05601FE0254D6D6805F410
:104130007012234D6D6805F48034022505EB924220
:104140001CB9214D554305600BE01D4D6D6805F40C
:1041500000351DB11C4D5543056002E0194D554316
:10416000056002E0174D056000BF00BF144D6D688B
:1041700005F0F0010909154D6B5C0568DD404560EF
:104180000F4D6D6805F4E061090A104D6B5C4568E0
:10419000DD4085600A4D6D6805F46051C90A0B4D1C
:1041A0006B5C4568DD40C560054D6D6805F44041B8
:1041B000890B074D6B5CC568B5FBF3F5056130BD38
:1041C0000010024000127A0000093D0000000020AB
:1041D000100000202DE9F041032500243CE072B6D8
:1041E000FDF7B6FD62B62148006810B91F48806827
:1041F00070B31E48006864282AD81C4880683C2890
:1042000026D81A49486803F01FFB8046184903F076
:1042100063FB06461549086803F016FB074631465E
:1042200003F0AAF9134908601049C86803F00CFBB1
:1042300080460F4903F050FB06460C49886803F09E
:1042400003FB0746314603F097F90B490860012448
:1042500014B9142001F0FAFF281EA5F10101CDB216
:1042600001DD002CBBD02046BDE8F081980600207F
:10427000CDCCCC3DB0000020AC00002070B5044691
:104280000D46012005490870054804700548057071
:1042900002F0B4FC0449086070BD00006C0000200E
:1042A00074000020750000207000002010B502206E
:1042B00000F006F810BD10B5012000F001F810BDA7
:1042C00010B5044601F036FF0248047001F044FFC7
:1042D00010BD00008C00002008B5FFF7D3FD4FF49F
:1042E000FA60FFF733FE00201B4908704FF47A7024
:1042F00001F0ACFF02F082FC0090002400262AE0CE
:104300006421684601F0BCFF01F014FF13480478F3
:1043100000201249087001F01FFFE4B1B4421AD026
:10432000012C02D0022C12D108E04FF47A752846F5
:10433000FFF70CFE01200849087009E04FF4FA6508
:104340002846FFF703FE00200349087000E000BF85
:1043500000BF264600BFD3E78D0000208C00002060
:1043600010B500F001F810BD0CB5002001900090D0
:104370003348006840F480303149086000BF30485D
:10438000006800F4003000900198401C01900098F3
:1043900018B90198B0F5A06FF1D12948006800F470
:1043A000003010B10120009001E000200090009842
:1043B000012843D12348006840F0100021490860DB
:1043C0000846006820F0030008600846006840F0D6
:1043D000020008601A484068194948600846406869
:1043E00048600846406840F480604860084640687D
:1043F00020F47C1048600846406840F4E8104860AB
:104400000846006840F08070086000BF0C480068F3
:1044100000F000700028F9D00948406820F003003F
:10442000074948600846406840F00200486000BF05
:104430000348406800F00C000828F9D10CBD0000CA
:10444000001002400020024010B502F0C7FB012816
:1044500001D002F0DFF810BD10B51348006840F03D
:1044600001001149086008464068104908400E499B
:104470004860084600680E4908400B490860084635
:10448000006820F4802008600846406820F4FE00A0
:1044900048604FF41F008860FFF762FF4FF0006034
:1044A0000449086010BD0000001002400000FFF841
:1044B000FFFFF6FE08ED00E00EB501210420FFF736
:1044C000FFFD0D4800F035F80020ADF80600ADF80E
:1044D00002004FF6FF70ADF804004720ADF8000071
:1044E00000208DF808006946034800F097F8012184
:1044F000014800F00FF80EBD0008004021B102880D
:1045000042F08002028004E002884FF67F731A4076
:104510000280704721B1028842F00102028004E06B
:1045200002884FF6FE731A40028070470146888C5D
:10453000704701894FF6F872114001817047000001
:1045400070B5002400220023058C4FF6EF7635402D
:104550000584028C8388048B48F6FF752C404FF647
:10456000FF452C400D884FF6FF7606EA05252C43C3
:104570004FF6DF752A400D8906EA05152A434D8856
:1045800006EA05152A43154DA84202D0144DA8424B
:104590001DD14FF67F752A404D894FF6FF7606EA0A
:1045A00005152A434FF6BF752A408D8806EA051582
:1045B0002A434FF6FF352B404FF2FF752B408D8974
:1045C00006EA85052B43CD8906EA85052B438380C2
:1045D0000483CD880587028470BD0000002C014053
:1045E000003401400A460021018B4FF2FF7319404D
:1045F0004FF6FF7303EA022319430183704700213A
:10460000018041808180C180018141818181C1819E
:10461000704701877047818470470000002202883C
:104620001D4B98420ED01D4B98420BD0B0F1804FDD
:1046300008D01B4B984205D01A4B984202D01A4B17
:10464000984204D14FF68F731A404B881A43174B88
:10465000984207D0164B984204D04FF6FF431A40B9
:10466000CB881A4302808B8883850B8803850A4B8D
:1046700098420BD0094B984208D00E4B984205D077
:104680000D4B984202D00D4B984201D10B7A038614
:104690000123838270470000002C01400034014058
:1046A0000004004000080040000C004000100040E2
:1046B0000014004000400140004401400048014017
:1046C0004FF000080026FFF7CFF8FFF7C5F84C4978
:1046D000087093E04FF4B97001F0B8FD49480068E4
:1046E000401C4849086000F009FB01F023FD4548E3
:1046F00000684549086001F02FFD00274348007815
:1047000008B1022708E04248007808B1012703E019
:104710004048007800B103273F480078874203D023
:104720003D480770FDF710FAFFF796F80546344844
:104730000078854204D0012038490870304805705F
:10474000FDF794FA044624B3B8F1000F01D0B44247
:104750001FD001202D49087002F050FA304908603E
:1047600002F04CFA2F49086000202C490870FFF72E
:10477000A2FD601EC1B2092000F09EFD2A4800780B
:1047800020B92AA201210420FFF700FB4FF0010805
:1047900026461E48007848B3FFF732F81F480078D5
:1047A00090B10020194908701C4908708046FFF735
:1047B0007DFDFFF71DF81C480078B8B920A2012143
:1047C0000420FFF7E3FA11E002F018FA154909682E
:1047D000401A40F23A71884208D3701EC1B20920D3
:1047E00000F06AFD02F00AFA0E4908602CB9074889
:1047F000007810B94FF00008002600BF6AE70000FB
:10480000A800002028010020D80000209D000020E2
:10481000C30000208D000020800000209E000020AA
:10482000A0000020A4000020A900002054414B4516
:10483000204D45444943494E4521202000000000B9
:104840004D65646963696E652074616B656E2120D6
:104850000000000010B540F22551094800F085F92C
:1048600060B1074800F03CFAC4B22046FCF7EEFF06
:1048700040F22551024800F050F900BF10BD000081
:104880000038014010B586B00446012144F204000E
:10489000FFF726FC4FF40070ADF8140003208DF8EC
:1048A000160018208DF8170005A91E48FEF73AFAE1
:1048B0004FF48060ADF8140004208DF8170005A9AE
:1048C0001848FEF72FFA4FF4165001900020ADF86B
:1048D0000800ADF80A00ADF80C00ADF810000C208F
:1048E000ADF80E0001A9104800F08EF9012240F247
:1048F00025510D4800F063F925208DF800000320B4
:104900008DF8010000208DF8020001208DF80300D1
:104910006846FEF7C3FF0121034800F00DF906B019
:1049200010BD0000000801400038014010B540F201
:1049300025510E4800F019F9B8B10D480088B0F5BE
:10494000A06F02D300200A4908800848001D008893
:10495000C1B2074802880088401C054B18800548F2
:1049600081542021014800F0CFF810BD00440040E0
:10497000180000209801002010B586B004460121DF
:104980000420FFF7ADFB01214804FFF799FB042049
:10499000ADF8140003208DF8160018208DF81700CC
:1049A00005A91B48FEF7BEF90820ADF81400042045
:1049B0008DF8170005A91648FEF7B4F901940020F8
:1049C000ADF80800ADF80A00ADF80C00ADF8100025
:1049D0000C20ADF80E0001A90E4800F015F90122D7
:1049E00040F225510B4800F0EAF826208DF800002F
:1049F00001208DF801008DF802008DF80300684653
:104A0000FEF74CFF0121034800F096F806B010BDF8
:104A1000000801400044004038B50020009040F2FA
:104A20002551324800F0A1F8002853D02F4800F05B
:104A300057F9C4B2AA2C05D12D48007810B1002036
:104A40002B4908702A480078402809DA294800785C
:104A500030B927490878411C254A117026490C5461
:104A600023480078052816DB23480078AA2812D1AD
:104A70002148407855280ED11F480079FB280AD1DB
:104A800001201E4908701E48006820B169461C4874
:104A9000006801F0DEFF16480078362814DB00209D
:104AA00008E0134909780A390144134A515C11544A
:104AB000411CC8B20A2803DA0D4909788842F0DBA4
:104AC0000A210B4A117000BF40F22551074800F03F
:104AD00024F800BF009838B14FF0805009490860B1
:104AE000BFF34F8FBFF36F8F38BD00000048004009
:104AF0004C0000204E000020E80600204D00002061
:104B00005C00002004ED00E001F40072B2F5007FCB
:104B100000D100BFCA430280704710B500220023B5
:104B200040F66A14A14200D100BF0A120124944049
:104B3000A3B2DC43048010BD21B1828942F400524B
:104B4000828104E082894DF6FF731A4082817047AA
:104B500002460020B1F5007F00D100BF13880B4052
:104B60000BB1012000E00020704770B50246002420
:104B700000230025002040F66A16B14200D100BF94
:104B8000C1F3421501F01F03012606FA03F3012DBC
:104B900002D19689334006E0022D02D1168A3340B5
:104BA00001E0968A33400C12012606FA04F41688B6
:104BB000344013B10CB1012000E0002070BDF0B50D
:104BC0000346002400260025002040F66A17B9425B
:104BD00000D100BF1846C1F3421401F01F0601279F
:104BE00007FA06F5012C01D10C3004E0022C01D1AA
:104BF000103000E014301AB107682F43076002E05C
:104C00000768AF430760F0BD2DE9F04786B0054661
:104C10000E460024A24600BFA1460027B08900B17D
:104C200000BF2F462C8A4CF6FF700440F0880443E6
:104C30002C82AC894EF6F3100440B08831890843C9
:104C4000718908430443AC81AC8A4FF6FF400440AD
:104C5000B0890443AC8201A8FFF752FA1F4887428B
:104C600002D1DDF810A001E0DDF80CA0A88900F465
:104C7000004040B10AEBCA0000EB0A10316849005D
:104C8000B0FBF1F807E00AEBCA0000EB0A1031684C
:104C90008900B0FBF1F86420B8FBF0F004012009B2
:104CA000642101FB1089A88900F4004040B1322042
:104CB00000EBC900B0FBF1F000F00700044308E08E
:104CC000322000EB09106421B0FBF1F000F00F007E
:104CD00004432C8106B0BDE8F08700000038014095
:104CE00001468888C0F308007047C1F3080282803B
:104CF000704710B5FEF714FE10BD000010B51B483C
:104D0000006830B100235A1E19461848006801F0A7
:104D1000E3FC17480078401C1549087008460078E5
:104D20003C2817DB0020087012480078401C11490D
:104D30000870084600783C280CDB002008700E48FC
:104D40000078401C0C49087008460078182801DBE0
:104D5000002008700548006830B100231A46194643
:104D60000248006801F0A6FD10BD0000E000002030
:104D7000C6000020C5000020C400002004E032204E
:104D800001F064FAFFF7EAF8F9E700BFFEE72DE962
:104D9000F04107460D46164600240CE0295D3846D2
:104DA000FFF7A3FF00BF80213846FFF7D1FE0028A0
:104DB000F9D0601C84B2B442F0DBBDE8F0810000A1
:104DC00070B504460D46152C59D2DFE804F0580B97
:104DD0000C0F2C2D2E2F3031323334353F494D51AD
:104DE000555657004CE0FFF766FA49E0FFF75EFAC8
:104DF0002448007870B100202249087022490870C8
:104E0000FEF7F6FC2148007820B921A201210420F8
:104E1000FEF7BCFF2348007820B10120224908702A
:104E2000FEF7E6FC2CE02BE02AE029E028E027E072
:104E300026E025E024E023E01C480078072804DA77
:104E40001A480078401C1949087019E01748007882
:104E5000012804DD15480078401E144908700FE051
:104E60000720124908700BE003201049087007E082
:104E700001200E49087003E002E001E000E000BFFD
:104E800000BF70BD9D0000209E000020A9000020F2
:104E90004D65646963696E652074616B656E212080
:104EA00000000000C3000020C2000020DE0000203F
:104EB00010B50446012C01DB092C00DD10BD204695
:104EC00000F0CEF900BFF9E70F4800F023F86420A6
:104ED00001F0BCF90D48007828B9012000F0C0F9B4
:104EE00001200A4908700DE000230A2219460848EB
:104EF000006801F0F1FB012802D100F059FA01E04D
:104F000000F056FAF0E70000C14D0008180100203B
:104F10005C00002010B586B004463F48006830B9F8
:104F200003220021012001F0A0FB3B4908603B481F
:104F3000046000213A48FFF7FFFD01210820FFF738
:104F4000CFF801218804FFF7BBF84FF48060ADF87B
:104F5000140003208DF8160018208DF8170005A9FD
:104F60003048FDF7DFFE4FF40060ADF81400042078
:104F70008DF8170005A92B48FDF7D4FE4FF4165005
:104F800001900020ADF80800ADF80A00ADF80C0063
:104F9000ADF810000C20ADF80E0001A92048FFF775
:104FA00033FE012240F225511D48FFF708FE27205D
:104FB0008DF8000002208DF8010000208DF802001D
:104FC00001208DF803006846FEF768FC01211448B3
:104FD000FFF7B2FD40211448FBF7EBFA002013491C
:104FE0000870134908701349087013490860134981
:104FF0000870134908601349086013490870134981
:105000000870134908701349087013490870134950
:10501000087006B010BD00005C0000206800002091
:1050200000480040000C0140E80600204C00002031
:105030004D00002060000020640000204E00002091
:10504000500000205400002058000020590000208B
:105050006C000020760000207C0000207D000020F5
:1050600070B504460D4601F0C9FD06467548007846
:10507000844209D174480078854205D1734800689C
:10508000301A642800D270BD6E4804706E480570F6
:105090006E4806606E480068401C6D490860FCF769
:1050A000CFFD012C0FD1022D0DD1012069490870CF
:1050B000694806606948006820B100210120674AFC
:1050C00012689047DFE7012C05D1012D03D10020A4
:1050D00060490870D7E75F48007800B9D3E75E48B9
:1050E0000660012C49D1E81E072844D2DFE800F011
:1050F000040D161F28313A005848006820B10021DD
:105100000D20564A1268904735E05448006820B197
:1051100000210E20514A126890472CE04F48006849
:1051200020B100210F204D4A1268904723E04B48E0
:10513000006820B100211020484A126890471AE008
:105140004648006820B100211120444A1268904767
:1051500011E04248006820B1002112203F4A126845
:10516000904708E03D48006820B1002113203B4AE9
:105170001268904700BF00BF85E7022C51D1082D6F
:105180004DD2DFE805F0040D161F28313A433348AD
:10519000006820B100210C20304A126890473EE0A0
:1051A0002E48006820B1002106202C4A1268904742
:1051B00035E02A48006820B100210220274A126801
:1051C00090472CE02548006820B100210320234AA5
:1051D0001268904723E02148006820B10021042094
:1051E0001E4A126890471AE01C48006820B100214E
:1051F00005201A4A1268904711E01848006820B14B
:1052000000210A20154A1268904708E013480068F8
:1052100020B100210B20114A1268904700BF00BF47
:1052200031E7082C01D0092C0AD10C48006830B1B4
:1052300045EA0410C1B21420084A1268904722E7D8
:1052400000BF20E758000020590000205400002033
:105250005000002060000020640000206800002052
:1052600070B50646012E01DB092E00DD70BD082E4B
:105270001AD2DFE806F01904070A0D1013160124EC
:10528000002512E0012401250FE0012402250CE095
:1052900008241E2509E00924002506E0092401252B
:1052A00003E00924022500E0E0E700BF294620468C
:1052B00000F002F800BFD9E77CB504460D4601F0C6
:1052C0009DFC06461A48007870B11A480078A04242
:1052D0000AD119480078A84206D118480068301A47
:1052E000B0F57A7F00D27CBD1148007820B100F083
:1052F00047F8142000F0AAFF01200D4908700D485E
:1053000004700D4805700D4806600DA103C9CDE974
:1053100000018DF802408DF8035029462046FEF723
:10532000ADFF0521684600F00FF800BFDBE7000085
:10533000760000207C0000207D0000207800002006
:10534000AA550000FB00000010B5024600200BE04B
:1053500000BF0A4B1B8803F08003002BF9D0135CBD
:10536000064C241D2380401C8842F1DB00BF03480B
:10537000008800F040000028F9D010BD004800402F
:105380001CB508A103C9CDE9000100210C20FEF7DE
:1053900075FF05216846FFF7D7FF00200349087015
:1053A0001CBD0000AA550C00FB0000007600002088
:1053B00070B5FCF745FCFCF72FFC1E48007850B197
:1053C00001F01CFC1C490968401AB0F5FA6F02D9BB
:1053D0000020184908701948007848B31848007828
:1053E00030BB01201649087016480078052818DBE4
:1053F00015480078AA2814D113484078552810D1B0
:1054000011480079FB280CD10F488478C5782946CB
:105410002046FDF72BFF18B929462046FFF720FE4E
:1054200000BF00200749087004490870044908704B
:1054300070BD000076000020780000204D000020A4
:105440004E0000204C000020E80600201CB506A1FC
:1054500003C9CDE9000104210120FEF70FFF05215A
:105460006846FFF771FF1CBDAA550104FB00000050
:105470001CB506A103C9CDE9000103210120FEF7F7
:10548000FDFE05216846FFF75FFF1CBDAA5501031D
:10549000FB000000490050EAC12018BF04204A0D5B
:1054A00018BF40F0010040F2FF72B2EB515F08BF3D
:1054B00040F00200012808BF0520704730380A2854
:1054C00001D2012070470020704700001CB5012464
:1054D000FEF7A8F9FEF7D4FA012001F0B5F83B4930
:1054E00008600846006830B939A201210846FEF775
:1054F0004DFC00BFFEE7012001F0A6F83749086027
:105500000846006830B936A201210846FEF73EFC85
:1055100000BFFEE7FEF7D0FFFCF766F94FF4165028
:10552000FFF7B0F94FF4E130FFF726FAFDF7F2FE8E
:105530004FF44070FEF7EAF92DA201210846FEF76C
:1055400025FCFDF7E1FA2EA201210220FEF71EFC48
:10555000FDF766FE2EA201210220FEF717FCFDF7E3
:10556000FBFC01202E490870FEF7DAF92DA201217B
:105570000846FEF70BFC2CA201210220FEF706FCD8
:105580002AA201210320FEF701FCFEF723FEFDF70E
:10559000F9FC2748006827490860FFF7AAFB26485E
:1055A000012100230A02CDE9001024A1274801F0BF
:1055B000BBFA0446012C02D100F090FF04E024A2C3
:1055C00001210420FEF7E2FB00BFFEE714000020EB
:1055D0004D75746578204661696C0000E00000201C
:1055E00054696D654D75746578204661696C00007D
:1055F000496E69742E2E2E2020202020202020008D
:10560000485837313120496E69742E2E2E202000E3
:10561000546172652E2E2E20202020202020200074
:10562000C0000020543A0000483A0000573A0000F9
:1056300024000020BC000020E400002041707054D1
:1056400061736B4372656174650000006116000848
:10565000437265617465204661696C002DE9F04113
:1056600005460E461C4807681C480068001D00F0EF
:10567000FFFC50B91948006890F82C1001208840B0
:1056800017490968814316480160681C38B936B16A
:1056900012480168091D134800F040FD1AE07C190A
:1056A0000E4800684460BC4207D20C480168091DDE
:1056B0000D48006800F018FD0CE008480168091D5D
:1056C0000A48006800F010FD09480068844201D2D1
:1056D00007480460BDE8F081400100202C01002053
:1056E00044010020C40C00203401002030010020BF
:1056F0005C01002010B5044600F01CFD2348006842
:10570000401C224908602248006840B920480460D3
:105710000846006801280DD100F0E4F90AE01D48B0
:10572000006838B91A480068C06AE16A884201D83E
:105730001748046018480068401C1749086094F82E
:105740002C10012088401549096808431349086056
:10575000E16A01EB8101124A02EB8100211D00F098
:10576000DDFC00F0F9FC0B48006868B108480068EF
:10577000C06AE16A884207D24FF080500949086048
:10578000BFF34F8FBFF36F8F10BD00003C010020AF
:105790002C01002048010020580100204401002075
:1057A000100C002004ED00E008B500F0C3FC124826
:1057B0000068E8B9114800F087FC114800F084FC4B
:1057C0000E48104908600E480F49086000200F4B32
:1057D0000F4A0C210090052000F066FF0649086082
:1057E0000846006820B10BA10348006800F0F2FCF5
:1057F00000F0B2FC08BD000070010020D80C0020B1
:10580000EC0C0020680100206C010020000D00203D
:10581000480D0020546D72510000000070B523E067
:1058200000F0A6FE1348006808B9012000E000203F
:10583000054601F0F9FABDB900F07CFC0D48C068DE
:10584000C468201D00F014FC0B480068401E0A4983
:1058500008600A480068401E0849086000F07CFCA7
:10586000204600F060F800BF044800680028D7D147
:1058700070BD0000B00C00203C0100203801002069
:1058800070B504460D46206C70B1216CE068084488
:10589000E0606168E068884201D32068E0602846E3
:1058A000226CE168FAF740FE70BD2DE9F041044634
:1058B0000F4615464FF00008A66B206C40B92068D3
:1058C00060BB606801F02EFA80460020606025E031
:1058D0007DB93946226CA068FAF726FE216CA068D3
:1058E0000844A060D4E90110884217D32068A06062
:1058F00014E03946226CE068FAF716FE216CE06885
:10590000401AE0602168E068884203D2216C606838
:10591000401AE060022D01D106B1761E701CA06312
:105920004046BDE8F08110B5044694F8510030B906
:10593000206B00F021FC204600F01EFC06E094F8ED
:105940005100012802D1204600F016FC10BD0000D5
:105950000146084A126812680AB9012200E00022D2
:105960000A600A6822B9034A1268D268106800E027
:10597000002070476801002030B54FF4705317487D
:1059800000F007042CB1C01D20F00700134C041BCD
:105990001B1B0246124C22600024114D6C60D01873
:1059A000083820F007000F4C206000240D4D2D68B2
:1059B0006C600C4D2D682C601146441A4C60094CEB
:1059C00024680C60084D4C682C60084D4C682C60B5
:1059D0004FF00044064D2C6030BD0000840D0020C7
:1059E0007C010020840100208C010020880100201F
:1059F0009001002000BFFFF711FF06480068012852
:105A0000F9D94FF0805004490860BFF34F8FBFF3BE
:105A10006F8FF0E7100C002004ED00E010B5044695
:105A20004CB1002060602060E06000231A461946F7
:105A3000204600F03FFF10BD2DE9F04106460D461F
:105A400017469846069C0DB9246000E02760E6637F
:105A500025640121204600F0EDFEBDE8F0812DE92E
:105A6000FF5F80460F469146DDE90E6A109CA9F162
:105A70000100216B01EB800B2BF0070B002507E0E9
:105A8000795D04F134004155785D00B902E06D1C88
:105A9000102DF5D300BF002143200155052E00D362
:105AA0000426E66266640020A064201D00F019FB55
:105AB00004F1180000F015FB2461C6F10500A06197
:105AC00064620020E06484F8500041465846039A1E
:105AD00000F0BCFA2060BAF1000F01D0CAF8004013
